:100000000C9439010C9490050C9465050C943A05F8
:100010000C940F050C94E4040C94B9040C948E0415
:100020000C9463040C946A010C946A010C946A01A8
:100030000C946A010C946A010C946A010C946A0194
:100040000C946A010C946A010C946A010C946A0184
:100050000C946A010C946A010C946A010C941904C2
:100060000C946A010C94E3030C94B9030C946A0198
:100070000C946A010C946A010C946A010C946A0154
:100080000C946A010C946A010C946A010C946A0144
:100090000C946A010C946A010C946A010C946A0134
:1000A0000C946A010C946A010C946A010C946A0124
:1000B0000C946A010C946A010C946A010C946A0114
:1000C0000C946A010C946A010C946A010C946A0104
:1000D0000C946A010C946A010C946A010C946A01F4
:1000E0000C946A010C94CE020C94F1020C946C01F5
:1000F0000C940C020C94DD020C94FF020C94D602BA
:100100000C94DC070C94C6010C94D4010C94DA0214
:100110000C94F5020C94B2010C9476010C94E30259
:100120000C94ED020C9409030C9459020C94C8022F
:100130000C94D2020C940D030C94A3010C9467034D
:100140000C9403030C9408030C94FB020C94E70238
:1001500000002100240027002A002D003000330079
:1001600001010000040107010A0100002000230032
:10017000260029002C002F0032000001000003019E
:100180000601090100002200250028002B002E0096
:100190003100340002010000050108010B010505D2
:1001A0000505070508080808020202020A0A0808ED
:1001B000040404040101010101010101030303031B
:1001C00003030303040707070C0C0C0C0C0C0C0CAA
:1001D0000202020206060606060606060B0B0B0BBB
:1001E0000B0B0B0B010210202008081020401020E0
:1001F00040800201020108040201010204081020EB
:1002000040808040201008040201800402018040E8
:100210002010080402010804020101020408102051
:100220004080010204081020408000000A0B0209EF
:100230000C0D0E0807030401000000000000000080
:1002400000000000000000000000000000000000AE
:10025000000000000000121110000000000000006B
:10026000000000000000000000000000000000008E
:10027000DC0711241FBECFEFD1E2DEBFCDBF00E00F
:100280000CBF12E0A0E0B2E0E2EEF4E100E00BBF50
:1002900002C007900D92A833B107D9F722E0A8E376
:1002A000B2E001C01D92A63EB207E1F711E0C9E33A
:1002B000D1E000E006C021970109802FFE010E94D5
:1002C000670AC833D10780E00807A9F70E94BB0579
:1002D0000C946F0A0C9400008091410290914202AC
:1002E000019690934202809341020895AF92BF928B
:1002F000CF92DF92EF92FF920F931F93CF93DF93F2
:100300006C017B018B01040F151FEB015E01AE1820
:10031000BF08C017D10759F06991D601ED91FC9142
:100320000190F081E02DC6011995892B79F7C5015F
:10033000DF91CF911F910F91FF90EF90DF90CF90C1
:10034000BF90AF900895FC01538D448D252F30E070
:10035000842F90E0821B930B541710F0CF960895D2
:1003600001970895FC01918D828D981761F0A28DFF
:10037000AE0FBF2FB11D5D968C91928D9F5F9F73C5
:10038000928F90E008958FEF9FEF0895FC01918D7B
:10039000828D981731F0828DE80FF11D858D90E0E8
:1003A00008958FEF9FEF0895FC01918D228D892F85
:1003B00090E0805C9F4F821B91098F73992708956D
:1003C00089E492E00E94D40121E0892B09F420E025
:1003D000822F0895FC01A48DA80FB92FB11DA35A37
:1003E000BF4F2C91848D90E001968F739927848F55
:1003F000A689B7892C93A089B1898C918370806478
:100400008C93938D848D981306C00288F389E02D18
:1004100080818F7D80830895EF92FF920F931F93C9
:10042000CF93DF93EC0181E0888F9B8D8C8D9813A7
:100430001AC0E889F989808185FF15C09FB7F894B3
:10044000EE89FF896083E889F989808183708064FF
:1004500080839FBF81E090E0DF91CF911F910F914A
:10046000FF90EF900895F62E0B8D10E00F5F1F4F59
:100470000F731127E02E8C8D8E110CC00FB607FC68
:10048000FACFE889F989808185FFF5CFCE010E94F6
:10049000EA01F1CFEB8DEC0FFD2FF11DE35AFF4F79
:1004A000F0829FB7F8940B8FEA89FB898081806284
:1004B000CFCFCF93DF93EC01888D8823B9F0AA8941
:1004C000BB89E889F9898C9185FD03C0808186FD0F
:1004D0000DC00FB607FCF7CF8C9185FFF2CF80815E
:1004E00085FFEDCFCE010E94EA01E9CFDF91CF91E8
:1004F000089580E090E0892B29F00E94E0018111AD
:100500000E94000080E090E0892B49F080E090E0BC
:10051000892B29F00E94000081110E94000080E0D8
:1005200090E0892B49F080E090E0892B29F00E942F
:10053000000081110E94000080E090E0892B49F0CA
:1005400080E090E0892B29F00E94000081110C943A
:10055000000008958150823108F05AC0E82FF0E081
:100560008827EA54FD4F8F4F0C94670AD602DA02AF
:10057000C802CE02D2020803DD02E302E702ED0266
:10058000F102F502FB02FF020803030309030D0356
:10059000809180008F778093800008958091800003
:1005A0008F7DF9CF80918000877FF5CF84B58F77DD
:1005B00084BD089584B58F7DFBCF8091B0008F7787
:1005C0008093B00008958091B0008F7DF9CF809125
:1005D00090008F77809390000895809190008F7D98
:1005E000F9CF80919000877FF5CF8091A0008F7721
:1005F0008093A00008958091A0008F7DF9CF809115
:10060000A000877FF5CF809120018F778093200114
:100610000895809120018F7DF9CF80912001877FFF
:10062000F5CFCF93DF9390E0FC01EC51FE4F249186
:1006300082569E4FFC0184918823D1F090E0880F70
:10064000991FFC01E05BFE4FA591B491FC01EC57B2
:10065000FE4FC591D49161110EC09FB7F8948C9153
:10066000E22FE0958E238C932881E223E8839FBFBD
:10067000DF91CF9108958FB7F894EC91E22BEC9332
:100680008FBFF6CF3FB7F89480913D0290913E0224
:10069000A0913F02B091400226B5A89B05C02F3F14
:1006A00019F00196A11DB11D3FBFBA2FA92F982F98
:1006B0008827BC01CD01620F711D811D911D42E093
:1006C000660F771F881F991F4A95D1F708950895DF
:1006D000FC0101900020E9F73197AF01481B590B4D
:1006E000BC0189E492E00C9476018F929F92AF92C4
:1006F000BF920F931F93CF93DF93CDB7DEB7A19730
:100700000FB6F894DEBF0FBECDBF19A2423008F479
:100710004AE08E010F5D1F4F842E912CB12CA12C2D
:10072000A50194010E94450AE62FB901CA01EA30E9
:10073000F4F4E05DD801EE938D01232B242B252BBF
:1007400079F790E080E0109719F0CD010E946803DE
:10075000A1960FB6F894DEBF0FBECDBFDF91CF914B
:100760001F910F91BF90AF909F908F900895E95C7B
:10077000E1CF1F920F920FB60F9211240BB60F927A
:100780002F933F934F935F936F937F938F939F9399
:10079000AF93BF93EF93FF9389E492E00E94EA0145
:1007A000FF91EF91BF91AF919F918F917F916F9149
:1007B0005F914F913F912F910F900BBE0F900FBE05
:1007C0000F901F9018951F920F920FB60F92112441
:1007D0000BB60F922F938F939F93EF93FF93E0911C
:1007E0005902F0915A028081E0915F02F09160021B
:1007F00082FD1DC09081809162028F5F8F73209176
:100800006302821741F0E0916202F0E0E75BFD4F86
:10081000958F80936202FF91EF919F918F912F911D
:100820000F900BBE0F900FBE0F901F9018958081F8
:10083000F2CF1F920F920FB60F9211242F933F9376
:100840008F939F93AF93BF938091390290913A0217
:10085000A0913B02B0913C023091380223E0230F7B
:100860002D3758F50196A11DB11D209338028093B4
:10087000390290933A02A0933B02B0933C028091DC
:100880003D0290913E02A0913F02B091400201963C
:10089000A11DB11D80933D0290933E02A0933F02A3
:1008A000B0934002BF91AF919F918F913F912F9153
:1008B0000F900FBE0F901F90189526E8230F0296F9
:1008C000A11DB11DD2CF1F920F920FB60F9211240E
:1008D0000BB60F922F933F934F935F936F937F933A
:1008E0008F939F93AF93BF93EF93FF93E0910E028B
:1008F000F0910F021995FF91EF91BF91AF919F91E8
:100900008F917F916F915F914F913F912F910F90B8
:100910000BBE0F900FBE0F901F9018951F920F9255
:100920000FB60F9211240BB60F922F933F934F9354
:100930005F936F937F938F939F93AF93BF93EF9347
:10094000FF93E0910C02F0910D021995FF91EF9148
:10095000BF91AF919F918F917F916F915F914F91D7
:100960003F912F910F900BBE0F900FBE0F901F90D5
:1009700018951F920F920FB60F9211240BB60F927B
:100980002F933F934F935F936F937F938F939F9397
:10099000AF93BF93EF93FF93E0910202F0910302B4
:1009A0001995FF91EF91BF91AF919F918F917F9199
:1009B0006F915F914F913F912F910F900BBE0F90D0
:1009C0000FBE0F901F9018951F920F920FB60F92A7
:1009D00011240BB60F922F933F934F935F936F9316
:1009E0007F938F939F93AF93BF93EF93FF93E09188
:1009F0000002F09101021995FF91EF91BF91AF9123
:100A00009F918F917F916F915F914F913F912F9126
:100A10000F900BBE0F900FBE0F901F9018951F9256
:100A20000F920FB60F9211240BB60F922F933F9394
:100A30004F935F936F937F938F939F93AF93BF93E6
:100A4000EF93FF93E0910A02F0910B021995FF9149
:100A5000EF91BF91AF919F918F917F916F915F9136
:100A60004F913F912F910F900BBE0F900FBE0F90A3
:100A70001F9018951F920F920FB60F9211240BB66C
:100A80000F922F933F934F935F936F937F938F9327
:100A90009F93AF93BF93EF93FF93E0910802F09180
:100AA00009021995FF91EF91BF91AF919F918F919D
:100AB0007F916F915F914F913F912F910F900BBE5E
:100AC0000F900FBE0F901F9018951F920F920FB6A8
:100AD0000F9211240BB60F922F933F934F935F9376
:100AE0006F937F938F939F93AF93BF93EF93FF93F6
:100AF000E0910602F09107021995FF91EF91BF91E5
:100B0000AF919F918F917F916F915F914F913F91A5
:100B10002F910F900BBE0F900FBE0F901F90189546
:100B20001F920F920FB60F9211240BB60F922F93B4
:100B30003F934F935F936F937F938F939F93AF9365
:100B4000BF93EF93FF93E0910402F0910502199592
:100B5000FF91EF91BF91AF919F918F917F916F9195
:100B60005F914F913F912F910F900BBE0F900FBE51
:100B70000F901F901895789484B5826084BD84B5D9
:100B8000816084BD85B5826085BD85B5816085BD88
:100B900080916E00816080936E0010928100809140
:100BA00081008260809381008091810081608093C8
:100BB0008100809180008160809380008091B100ED
:100BC00084608093B1008091B00081608093B00018
:100BD000809191008260809391008091910081606A
:100BE000809391008091900081608093900080912B
:100BF000A10082608093A1008091A1008160809318
:100C0000A1008091A00081608093A00080912101CB
:100C10008260809321018091210181608093210174
:100C20008091200181608093200180917A0084600E
:100C300080937A0080917A00826080937A0080911C
:100C40007A00816080937A0080917A008068809336
:100C50007A001092C100E0915902F0915A0282E0AC
:100C60008083E0915502F09156021082E091570284
:100C7000F09158028FEC808310926102E0915D0246
:100C8000F0915E0286E08083E0915B02F0915C026D
:100C9000808180618083E0915B02F0915C028081C1
:100CA00088608083E0915B02F0915C0280818068C3
:100CB0008083E0915B02F0915C0280818F7D808374
:100CC00061E085E00E94110360E089E00E94110369
:100CD00060E082E00E9411038CE691E090930102B3
:100CE0008093000280916A00836080936A00EC9A8E
:100CF0003FE2232E32E0332E09EE11E0C3EAD1E0C9
:100D0000E3E3F2E08491EDEEF1E0F490E7EAF1E064
:100D1000E490EE2009F4B7C081110E94AA02EE2DE2
:100D2000F0E0EE0FFF1FE659FE4FA591B4918C91B4
:100D3000F82231E020E009F430E0832F922F9093E5
:100D400048028093470220914502309146022817BD
:100D5000390709F438C0019781F4232B71F481E03D
:100D600090E02091430230914402232B11F090E057
:100D700080E09093440280934302F1018491F80152
:100D8000F490FE01D490DD20B1F0E0904302811197
:100D90000E94AA02ED2DF0E0EE0FFF1FEC57FE4F70
:100DA000A591B4918FB7F8949C91E1106FC0F09425
:100DB000F922FC928FBF8091470290914802909354
:100DC00046028093450210924202109241027894AA
:100DD0000E9442034B015C0188EEC82E83E0D82EAE
:100DE000E12CF12C0E944203681979098A099B09B8
:100DF000683E734081059105A8F3F1E0CF1AD10850
:100E0000E108F10828EE820E23E0921EA11CB11C1D
:100E1000C114D104E104F10429F7F894609141026E
:100E200070914202072E000C880B990B0E941E093C
:100E300020E030E040E150E40E94D30920E030E0BF
:100E400040E752E40E94D30920E030E04AE754E44E
:100E50000E947B086B017C014B015C01AC019B0192
:100E60000E94400A8823A1F082E292E00E94680377
:100E70008EE292E00E94680385E392E00E9468039C
:100E80000E9479023DCF90E080E059CFF92A91CFBE
:100E900026013701E89477F82FEF3FEF4FE75FE740
:100EA000C301B2010E94400A81110DC02FEF3FEF34
:100EB0004FE75FE7C301B2010E94760818161CF4E1
:100EC00086E292E0D3CF2FEF3FEF4FE75FE4C70119
:100ED000B6010E94CE0918161CF48AE292E0C6CF31
:100EE0002FEF3FEF4FE75FECC701B6010E94760896
:100EF00087FDF3CF20E030E0A901C701B6010E94D1
:100F0000760887FF0BC06DE289E492E00E940C0234
:100F100046015701B7FAB094B7F8B0942AE037ED1C
:100F200043EA5BE3C501B4010E940A084B015C017E
:100F30000E94ED086B017C010E941C099B01AC0121
:100F4000C501B4010E9409084B015C014AE0C701D8
:100F5000B6010E9475036EE289E492E00E940C02E1
:100F600020E030E040E251E4C501B4010E94D30921
:100F70004B015C010E94ED086B01F12CE12C4AE071
:100F8000C701B6010E947503C701B6010E941C0982
:100F90009B01AC01C501B4010E94090820E030E0CA
:100FA00040E251E40E94D3090E94ED0890E080E005
:100FB0004AE00E9475035CCFE9E4F2E013821282FA
:100FC00088EE93E0A0E0B0E084839583A683B783A6
:100FD00084E192E09183808385EC90E0958784871B
:100FE00084EC90E09787868780EC90E0918B808BF3
:100FF00081EC90E0938B828B82EC90E0958B848BDC
:1010000086EC90E0978B868B118E128E138E148E49
:1010100008955058BB27AA270E9421080C949409D0
:101020000E94860938F00E948D0920F039F49F3F14
:1010300019F426F40C9483090EF4E095E7FB0C9464
:101040007D09E92F0E94A50958F3BA1762077307B3
:101050008407950720F079F4A6F50C94C7090EF4DF
:10106000E0950B2EBA2FA02D0B01B90190010C01B8
:10107000CA01A0011124FF27591B99F0593F50F4D0
:10108000503E68F11A16F040A22F232F342F442728
:10109000585FF3CF469537952795A795F040539520
:1010A000C9F77EF41F16BA0B620B730B840BBAF0F0
:1010B0009150A1F0FF0FBB1F661F771F881FC2F75B
:1010C0000EC0BA0F621F731F841F48F4879577956F
:1010D0006795B795F7959E3F08F0B0CF9395880F29
:1010E00008F09927EE0F9795879508950E94590962
:1010F00008F481E008950E948F080C9494090E94DE
:101100008D0958F00E94860940F029F45F3F29F0CC
:101110000C947D0951110C94C8090C9483090E9408
:10112000A50968F39923B1F3552391F3951B550B4A
:10113000BB27AA2762177307840738F09F5F5F4FAA
:10114000220F331F441FAA1FA9F335D00E2E3AF0E9
:10115000E0E832D091505040E695001CCAF72BD001
:10116000FE2F29D0660F771F881FBB1F2617370752
:101170004807AB07B0E809F0BB0B802DBF01FF2784
:1011800093585F4F3AF09E3F510578F00C947D09DB
:101190000C94C8095F3FE4F3983ED4F386957795A5
:1011A0006795B795F7959F5FC9F7880F911D96953D
:1011B000879597F90895E1E0660F771F881FBB1F99
:1011C000621773078407BA0720F0621B730B840B46
:1011D000BA0BEE1F88F7E09508950E94AD0988F0DC
:1011E0009F5798F0B92F9927B751B0F0E1F0660FEB
:1011F000771F881F991F1AF0BA95C9F714C0B1302C
:1012000091F00E94C709B1E008950C94C709672FB7
:10121000782F8827B85F39F0B93FCCF3869577955A
:101220006795B395D9F73EF4909580957095619543
:101230007F4F8F4F9F4F0895E89409C097FB3EF46E
:1012400090958095709561957F4F8F4F9F4F992313
:10125000A9F0F92F96E9BB279395F6958795779591
:101260006795B795F111F8CFFAF4BB0F11F460FF51
:101270001BC06F5F7F4F8F4F9F4F16C0882311F0A9
:1012800096E911C0772321F09EE8872F762F05C0BD
:10129000662371F096E8862F70E060E02AF09A9558
:1012A000660F771F881FDAF7880F9695879597F94D
:1012B0000895990F0008550FAA0BE0E8FEEF1616E7
:1012C0001706E807F907C0F012161306E407F5073A
:1012D00098F0621B730B840B950B39F40A2661F0AE
:1012E000232B242B252B21F408950A2609F4A14051
:1012F000A6958FEF811D811D089597F99F6780E85E
:1013000070E060E008959FEF80EC089500240A9457
:101310001616170618060906089500240A941216D0
:101320001306140605060895092E0394000C11F403
:10133000882352F0BB0F40F4BF2B11F460FF04C0B0
:101340006F5F7F4F8F4F9F4F089557FD9058440F09
:10135000551F59F05F3F71F04795880F97FB991F14
:1013600061F09F3F79F087950895121613061406D1
:10137000551FF2CF4695F1DF08C01616170618065E
:10138000991FF1CF86957105610508940895E89439
:10139000BB2766277727CB0197F908950E94590943
:1013A00008F48FEF08950E94E6090C9494090E94B6
:1013B000860938F00E948D0920F0952311F00C94D5
:1013C0007D090C94830911240C94C8090E94A50975
:1013D00070F3959FC1F3950F50E0551F629FF00188
:1013E000729FBB27F00DB11D639FAA27F00DB11DA1
:1013F000AA1F649F6627B00DA11D661F829F22272A
:10140000B00DA11D621F739FB00DA11D621F839FB0
:10141000A00D611D221F749F3327A00D611D231F86
:10142000849F600D211D822F762F6A2F11249F57D4
:1014300050409AF0F1F088234AF0EE0FFF1FBB1FD7
:10144000661F771F881F91505040A9F79E3F510596
:1014500080F00C947D090C94C8095F3FE4F3983E3A
:10146000D4F3869577956795B795F795E7959F5F40
:10147000C1F7FE2B880F911D9695879597F90895D2
:101480000E945909880B990B0895A1E21A2EAA1BF4
:10149000BB1BFD010DC0AA1FBB1FEE1FFF1FA21724
:1014A000B307E407F50720F0A21BB30BE40BF50B21
:1014B000661F771F881F991F1A9469F760957095AA
:1014C000809590959B01AC01BD01CF010895EE0F71
:1014D000FF1F881F8BBF0790F691E02D1994F89499
:0214E000FFCF3C
:1014E20067036703670367036703670367036703AA
:1014F200000000000C027601A3015902D401B201DE
:10150200C6016E616E00696E66006F766600204CE1
:081512002F4D696E000D0A0067
:00000001FF
